{
  "_format": "hh-sol-artifact-1",
  "contractName": "Todo",
  "sourceName": "contracts/Todo.sol",
  "abi": [
    {
      "inputs": [
        {
          "internalType": "string",
          "name": "_description",
          "type": "string"
        }
      ],
      "name": "addTask",
      "outputs": [],
      "stateMutability": "nonpayable",
      "type": "function"
    },
    {
      "inputs": [
        {
          "internalType": "uint256",
          "name": "_taskId",
          "type": "uint256"
        }
      ],
      "name": "completeTask",
      "outputs": [],
      "stateMutability": "nonpayable",
      "type": "function"
    },
    {
      "inputs": [],
      "name": "getTasks",
      "outputs": [
        {
          "components": [
            {
              "internalType": "uint256",
              "name": "id",
              "type": "uint256"
            },
            {
              "internalType": "string",
              "name": "description",
              "type": "string"
            },
            {
              "internalType": "bool",
              "name": "isCompleted",
              "type": "bool"
            }
          ],
          "internalType": "struct Todo.Task[]",
          "name": "",
          "type": "tuple[]"
        }
      ],
      "stateMutability": "view",
      "type": "function"
    },
    {
      "inputs": [
        {
          "internalType": "uint256",
          "name": "",
          "type": "uint256"
        }
      ],
      "name": "tasks",
      "outputs": [
        {
          "internalType": "uint256",
          "name": "id",
          "type": "uint256"
        },
        {
          "internalType": "string",
          "name": "description",
          "type": "string"
        },
        {
          "internalType": "bool",
          "name": "isCompleted",
          "type": "bool"
        }
      ],
      "stateMutability": "view",
      "type": "function"
    }
  ],
  "bytecode": "0x6080604052348015600f57600080fd5b506107248061001f6000396000f3fe608060405234801561001057600080fd5b506004361061004c5760003560e01c806304a87e3814610051578063672385621461006f5780638d97767214610084578063e1e29558146100a6575b600080fd5b6100596100b9565b60405161006691906103f4565b60405180910390f35b61008261007d366004610493565b6101c6565b005b61009761009236600461054c565b61026d565b60405161006693929190610565565b6100826100b436600461054c565b61032e565b60606000805480602002602001604051908101604052809291908181526020016000905b828210156101bd57838290600052602060002090600302016040518060600160405290816000820154815260200160018201805461011a90610590565b80601f016020809104026020016040519081016040528092919081815260200182805461014690610590565b80156101935780601f1061016857610100808354040283529160200191610193565b820191906000526020600020905b81548152906001019060200180831161017657829003601f168201915b50505091835250506002919091015460ff16151560209182015290825260019290920191016100dd565b50505050905090565b6000805460408051606081018252828152602081018581529181018490526001830184559280528251600383027f290decd9548b62a8d60345a988386fc84ba6bc95484008f6362f93160ef3e5638101918255915192939290917f290decd9548b62a8d60345a988386fc84ba6bc95484008f6362f93160ef3e564019061024d9082610619565b50604091909101516002909101805460ff19169115159190911790555050565b6000818154811061027d57600080fd5b600091825260209091206003909102018054600182018054919350906102a290610590565b80601f01602080910402602001604051908101604052809291908181526020018280546102ce90610590565b801561031b5780601f106102f05761010080835404028352916020019161031b565b820191906000526020600020905b8154815290600101906020018083116102fe57829003601f168201915b5050506002909301549192505060ff1683565b60005481106103745760405162461bcd60e51b815260206004820152600e60248201526d15185cdac81b9bdd08199bdd5b9960921b604482015260640160405180910390fd5b600160008281548110610389576103896106d8565b60009182526020909120600390910201600201805460ff191691151591909117905550565b6000815180845260005b818110156103d4576020818501810151868301820152016103b8565b506000602082860101526020601f19601f83011685010191505092915050565b6000602082016020835280845180835260408501915060408160051b86010192506020860160005b8281101561047157603f1987860301845281518051865260208101516060602088015261044c60608801826103ae565b604092830151151597909201969096529450602093840193919091019060010161041c565b50929695505050505050565b634e487b7160e01b600052604160045260246000fd5b6000602082840312156104a557600080fd5b813567ffffffffffffffff8111156104bc57600080fd5b8201601f810184136104cd57600080fd5b803567ffffffffffffffff8111156104e7576104e761047d565b604051601f8201601f19908116603f0116810167ffffffffffffffff811182821017156105165761051661047d565b60405281815282820160200186101561052e57600080fd5b81602084016020830137600091810160200191909152949350505050565b60006020828403121561055e57600080fd5b5035919050565b83815260606020820152600061057e60608301856103ae565b90508215156040830152949350505050565b600181811c908216806105a457607f821691505b6020821081036105c457634e487b7160e01b600052602260045260246000fd5b50919050565b601f82111561061457806000526020600020601f840160051c810160208510156105f15750805b601f840160051c820191505b8181101561061157600081556001016105fd565b50505b505050565b815167ffffffffffffffff8111156106335761063361047d565b610647816106418454610590565b846105ca565b6020601f82116001811461067b57600083156106635750848201515b600019600385901b1c1916600184901b178455610611565b600084815260208120601f198516915b828110156106ab578785015182556020948501946001909201910161068b565b50848210156106c95786840151600019600387901b60f8161c191681555b50505050600190811b01905550565b634e487b7160e01b600052603260045260246000fdfea26469706673582212203ff02c3b10a303a4473b7a3b9c89c132d391bd9a6c57028c11cdc71395cab74764736f6c634300081c0033",
  "linkReferences": {},
  "deployedLinkReferences": {}
}