{
  "_format": "hh-sol-artifact-1",
  "contractName": "Staking",
  "sourceName": "contracts/Staking.sol",
  "abi": [
    {
      "inputs": [
        {
          "internalType": "contract MyToken",
          "name": "_token",
          "type": "address"
        }
      ],
      "stateMutability": "nonpayable",
      "type": "constructor"
    },
    {
      "inputs": [
        {
          "internalType": "address",
          "name": "_user",
          "type": "address"
        }
      ],
      "name": "calculateReward",
      "outputs": [
        {
          "internalType": "uint256",
          "name": "",
          "type": "uint256"
        }
      ],
      "stateMutability": "view",
      "type": "function"
    },
    {
      "inputs": [],
      "name": "claimReward",
      "outputs": [],
      "stateMutability": "nonpayable",
      "type": "function"
    },
    {
      "inputs": [
        {
          "internalType": "address",
          "name": "",
          "type": "address"
        }
      ],
      "name": "rewardBalances",
      "outputs": [
        {
          "internalType": "uint256",
          "name": "",
          "type": "uint256"
        }
      ],
      "stateMutability": "view",
      "type": "function"
    },
    {
      "inputs": [
        {
          "internalType": "uint256",
          "name": "_amount",
          "type": "uint256"
        }
      ],
      "name": "stake",
      "outputs": [],
      "stateMutability": "nonpayable",
      "type": "function"
    },
    {
      "inputs": [
        {
          "internalType": "address",
          "name": "",
          "type": "address"
        }
      ],
      "name": "stakedBalances",
      "outputs": [
        {
          "internalType": "uint256",
          "name": "",
          "type": "uint256"
        }
      ],
      "stateMutability": "view",
      "type": "function"
    },
    {
      "inputs": [],
      "name": "token",
      "outputs": [
        {
          "internalType": "contract MyToken",
          "name": "",
          "type": "address"
        }
      ],
      "stateMutability": "view",
      "type": "function"
    },
    {
      "inputs": [
        {
          "internalType": "uint256",
          "name": "_amount",
          "type": "uint256"
        }
      ],
      "name": "withdraw",
      "outputs": [],
      "stateMutability": "nonpayable",
      "type": "function"
    }
  ],
  "bytecode": "0x6080604052348015600f57600080fd5b506040516104f63803806104f6833981016040819052602c916050565b600080546001600160a01b0319166001600160a01b0392909216919091179055607e565b600060208284031215606157600080fd5b81516001600160a01b0381168114607757600080fd5b9392505050565b6104698061008d6000396000f3fe608060405234801561001057600080fd5b506004361061007d5760003560e01c8063a694fc3a1161005b578063a694fc3a146100ea578063b88a802f146100fd578063d82e396214610105578063fc0c546a1461011857600080fd5b80631460fa87146100825780632e1a7d4d146100b557806393c8dc6d146100ca575b600080fd5b6100a2610090366004610353565b60016020526000908152604090205481565b6040519081526020015b60405180910390f35b6100c86100c3366004610383565b610143565b005b6100a26100d8366004610353565b60026020526000908152604090205481565b6100c86100f8366004610383565b61023c565b6100c86102ed565b6100a2610113366004610353565b61031c565b60005461012b906001600160a01b031681565b6040516001600160a01b0390911681526020016100ac565b3360009081526001602052604090205481111561019e5760405162461bcd60e51b8152602060048201526014602482015273496e73756666696369656e742062616c616e636560601b60448201526064015b60405180910390fd5b33600090815260016020526040812080548392906101bd9084906103b2565b909155505060005460405163a9059cbb60e01b8152336004820152602481018390526001600160a01b039091169063a9059cbb906044015b6020604051808303816000875af1158015610214573d6000803e3d6000fd5b505050506040513d601f19601f8201168201806040525081019061023891906103c5565b5050565b6000811161028c5760405162461bcd60e51b815260206004820152601f60248201527f416d6f756e742073686f756c642062652067726561746572207468616e2030006044820152606401610195565b33600090815260016020526040812080548392906102ab9084906103e7565b90915550506000546040516323b872dd60e01b8152336004820152306024820152604481018390526001600160a01b03909116906323b872dd906064016101f5565b60006102f83361031c565b336000908152600260205260408120805492935083929091906101bd9084906103e7565b6001600160a01b03811660009081526001602052604081205460649061034390600a6103fa565b61034d9190610411565b92915050565b60006020828403121561036557600080fd5b81356001600160a01b038116811461037c57600080fd5b9392505050565b60006020828403121561039557600080fd5b5035919050565b634e487b7160e01b600052601160045260246000fd5b8181038181111561034d5761034d61039c565b6000602082840312156103d757600080fd5b8151801515811461037c57600080fd5b8082018082111561034d5761034d61039c565b808202811582820484141761034d5761034d61039c565b60008261042e57634e487b7160e01b600052601260045260246000fd5b50049056fea26469706673582212203b241467e3e5aa03132a818df35f726419ba2d5c0d2e429ec5e6b82f71b679ea64736f6c634300081c0033",
  "linkReferences": {},
  "deployedLinkReferences": {}
}